{
  "_format": "hh-sol-artifact-1",
  "contractName": "ReliefFund",
  "sourceName": "contracts/ReliefFund.sol",
  "abi": [
    {
      "inputs": [],
      "stateMutability": "nonpayable",
      "type": "constructor"
    },
    {
      "anonymous": false,
      "inputs": [
        {
          "indexed": true,
          "internalType": "address",
          "name": "donor",
          "type": "address"
        },
        {
          "indexed": false,
          "internalType": "uint256",
          "name": "amount",
          "type": "uint256"
        },
        {
          "indexed": false,
          "internalType": "string",
          "name": "description",
          "type": "string"
        }
      ],
      "name": "DonationReceived",
      "type": "event"
    },
    {
      "anonymous": false,
      "inputs": [
        {
          "indexed": true,
          "internalType": "address",
          "name": "owner",
          "type": "address"
        },
        {
          "indexed": false,
          "internalType": "uint256",
          "name": "amount",
          "type": "uint256"
        }
      ],
      "name": "FundsWithdrawn",
      "type": "event"
    },
    {
      "inputs": [
        {
          "internalType": "string",
          "name": "description",
          "type": "string"
        }
      ],
      "name": "donate",
      "outputs": [],
      "stateMutability": "payable",
      "type": "function"
    },
    {
      "inputs": [
        {
          "internalType": "uint256",
          "name": "",
          "type": "uint256"
        }
      ],
      "name": "donationDetails",
      "outputs": [
        {
          "internalType": "address",
          "name": "donor",
          "type": "address"
        },
        {
          "internalType": "uint256",
          "name": "amount",
          "type": "uint256"
        },
        {
          "internalType": "string",
          "name": "description",
          "type": "string"
        }
      ],
      "stateMutability": "view",
      "type": "function"
    },
    {
      "inputs": [
        {
          "internalType": "address",
          "name": "",
          "type": "address"
        }
      ],
      "name": "donations",
      "outputs": [
        {
          "internalType": "uint256",
          "name": "",
          "type": "uint256"
        }
      ],
      "stateMutability": "view",
      "type": "function"
    },
    {
      "inputs": [
        {
          "internalType": "uint256",
          "name": "donationId",
          "type": "uint256"
        }
      ],
      "name": "getDonation",
      "outputs": [
        {
          "components": [
            {
              "internalType": "address",
              "name": "donor",
              "type": "address"
            },
            {
              "internalType": "uint256",
              "name": "amount",
              "type": "uint256"
            },
            {
              "internalType": "string",
              "name": "description",
              "type": "string"
            }
          ],
          "internalType": "struct ReliefFund.Donation",
          "name": "",
          "type": "tuple"
        }
      ],
      "stateMutability": "view",
      "type": "function"
    },
    {
      "inputs": [],
      "name": "getTotalDonations",
      "outputs": [
        {
          "internalType": "uint256",
          "name": "",
          "type": "uint256"
        }
      ],
      "stateMutability": "view",
      "type": "function"
    },
    {
      "inputs": [],
      "name": "owner",
      "outputs": [
        {
          "internalType": "address payable",
          "name": "",
          "type": "address"
        }
      ],
      "stateMutability": "view",
      "type": "function"
    },
    {
      "inputs": [],
      "name": "totalDonations",
      "outputs": [
        {
          "internalType": "uint256",
          "name": "",
          "type": "uint256"
        }
      ],
      "stateMutability": "view",
      "type": "function"
    },
    {
      "inputs": [
        {
          "internalType": "uint256",
          "name": "amount",
          "type": "uint256"
        }
      ],
      "name": "withdraw",
      "outputs": [],
      "stateMutability": "nonpayable",
      "type": "function"
    }
  ],
  "bytecode": "0x608060405234801561001057600080fd5b50336000806101000a81548173ffffffffffffffffffffffffffffffffffffffff021916908373ffffffffffffffffffffffffffffffffffffffff1602179055506111a5806100606000396000f3fe60806040526004361061007b5760003560e01c8063b5aebc801161004e578063b5aebc801461013e578063cc6cb19a1461015a578063de2ed89314610197578063ef07a81f146101c25761007b565b806323780340146100805780632e1a7d4d146100bf578063777c658f146100e85780638da5cb5b14610113575b600080fd5b34801561008c57600080fd5b506100a760048036038101906100a2919061081b565b6101ff565b6040516100b693929190610928565b60405180910390f35b3480156100cb57600080fd5b506100e660048036038101906100e1919061081b565b6102d1565b005b3480156100f457600080fd5b506100fd61047a565b60405161010a9190610966565b60405180910390f35b34801561011f57600080fd5b50610128610484565b60405161013591906109a2565b60405180910390f35b61015860048036038101906101539190610af2565b6104a8565b005b34801561016657600080fd5b50610181600480360381019061017c9190610b67565b61065d565b60405161018e9190610966565b60405180910390f35b3480156101a357600080fd5b506101ac610675565b6040516101b99190610966565b60405180910390f35b3480156101ce57600080fd5b506101e960048036038101906101e4919061081b565b61067b565b6040516101f69190610c4c565b60405180910390f35b60026020528060005260406000206000915090508060000160009054906101000a900473ffffffffffffffffffffffffffffffffffffffff169080600101549080600201805461024e90610c9d565b80601f016020809104026020016040519081016040528092919081815260200182805461027a90610c9d565b80156102c75780601f1061029c576101008083540402835291602001916102c7565b820191906000526020600020905b8154815290600101906020018083116102aa57829003601f168201915b5050505050905083565b60008054906101000a900473ffffffffffffffffffffffffffffffffffffffff1673ffffffffffffffffffffffffffffffffffffffff163373ffffffffffffffffffffffffffffffffffffffff161461035f576040517f08c379a000000000000000000000000000000000000000000000000000000000815260040161035690610d40565b60405180910390fd5b804710156103a2576040517f08c379a000000000000000000000000000000000000000000000000000000000815260040161039990610dac565b60405180910390fd5b60008054906101000a900473ffffffffffffffffffffffffffffffffffffffff1673ffffffffffffffffffffffffffffffffffffffff166108fc829081150290604051600060405180830381858888f19350505050158015610408573d6000803e3d6000fd5b5060008054906101000a900473ffffffffffffffffffffffffffffffffffffffff1673ffffffffffffffffffffffffffffffffffffffff167feaff4b37086828766ad3268786972c0cd24259d4c87a80f9d3963a3c3d999b0d8260405161046f9190610966565b60405180910390a250565b6000600354905090565b60008054906101000a900473ffffffffffffffffffffffffffffffffffffffff1681565b600034116104eb576040517f08c379a00000000000000000000000000000000000000000000000000000000081526004016104e290610e3e565b60405180910390fd5b34600160003373ffffffffffffffffffffffffffffffffffffffff1673ffffffffffffffffffffffffffffffffffffffff168152602001908152602001600020600082825461053a9190610e8d565b9250508190555034600360008282546105539190610e8d565b9250508190555060405180606001604052803373ffffffffffffffffffffffffffffffffffffffff1681526020013481526020018281525060026000600354815260200190815260200160002060008201518160000160006101000a81548173ffffffffffffffffffffffffffffffffffffffff021916908373ffffffffffffffffffffffffffffffffffffffff160217905550602082015181600101556040820151816002019081610606919061106d565b509050503373ffffffffffffffffffffffffffffffffffffffff167ffa5658cbb5d60363acba0d281bddcf21cc9e7ea6053267531b4cdc36d5df7a8a348360405161065292919061113f565b60405180910390a250565b60016020528060005260406000206000915090505481565b60035481565b61068361079a565b600260008381526020019081526020016000206040518060600160405290816000820160009054906101000a900473ffffffffffffffffffffffffffffffffffffffff1673ffffffffffffffffffffffffffffffffffffffff1673ffffffffffffffffffffffffffffffffffffffff1681526020016001820154815260200160028201805461071190610c9d565b80601f016020809104026020016040519081016040528092919081815260200182805461073d90610c9d565b801561078a5780601f1061075f5761010080835404028352916020019161078a565b820191906000526020600020905b81548152906001019060200180831161076d57829003601f168201915b5050505050815250509050919050565b6040518060600160405280600073ffffffffffffffffffffffffffffffffffffffff16815260200160008152602001606081525090565b6000604051905090565b600080fd5b600080fd5b6000819050919050565b6107f8816107e5565b811461080357600080fd5b50565b600081359050610815816107ef565b92915050565b600060208284031215610831576108306107db565b5b600061083f84828501610806565b91505092915050565b600073ffffffffffffffffffffffffffffffffffffffff82169050919050565b600061087382610848565b9050919050565b61088381610868565b82525050565b610892816107e5565b82525050565b600081519050919050565b600082825260208201905092915050565b60005b838110156108d25780820151818401526020810190506108b7565b60008484015250505050565b6000601f19601f8301169050919050565b60006108fa82610898565b61090481856108a3565b93506109148185602086016108b4565b61091d816108de565b840191505092915050565b600060608201905061093d600083018661087a565b61094a6020830185610889565b818103604083015261095c81846108ef565b9050949350505050565b600060208201905061097b6000830184610889565b92915050565b600061098c82610848565b9050919050565b61099c81610981565b82525050565b60006020820190506109b76000830184610993565b92915050565b600080fd5b600080fd5b7f4e487b7100000000000000000000000000000000000000000000000000000000600052604160045260246000fd5b6109ff826108de565b810181811067ffffffffffffffff82111715610a1e57610a1d6109c7565b5b80604052505050565b6000610a316107d1565b9050610a3d82826109f6565b919050565b600067ffffffffffffffff821115610a5d57610a5c6109c7565b5b610a66826108de565b9050602081019050919050565b82818337600083830152505050565b6000610a95610a9084610a42565b610a27565b905082815260208101848484011115610ab157610ab06109c2565b5b610abc848285610a73565b509392505050565b600082601f830112610ad957610ad86109bd565b5b8135610ae9848260208601610a82565b91505092915050565b600060208284031215610b0857610b076107db565b5b600082013567ffffffffffffffff811115610b2657610b256107e0565b5b610b3284828501610ac4565b91505092915050565b610b4481610868565b8114610b4f57600080fd5b50565b600081359050610b6181610b3b565b92915050565b600060208284031215610b7d57610b7c6107db565b5b6000610b8b84828501610b52565b91505092915050565b610b9d81610868565b82525050565b610bac816107e5565b82525050565b600082825260208201905092915050565b6000610bce82610898565b610bd88185610bb2565b9350610be88185602086016108b4565b610bf1816108de565b840191505092915050565b6000606083016000830151610c146000860182610b94565b506020830151610c276020860182610ba3565b5060408301518482036040860152610c3f8282610bc3565b9150508091505092915050565b60006020820190508181036000830152610c668184610bfc565b905092915050565b7f4e487b7100000000000000000000000000000000000000000000000000000000600052602260045260246000fd5b60006002820490506001821680610cb557607f821691505b602082108103610cc857610cc7610c6e565b5b50919050565b7f4f6e6c7920746865206f776e65722063616e2077697468647261772066756e6460008201527f7300000000000000000000000000000000000000000000000000000000000000602082015250565b6000610d2a6021836108a3565b9150610d3582610cce565b604082019050919050565b60006020820190508181036000830152610d5981610d1d565b9050919050565b7f496e73756666696369656e742062616c616e6365000000000000000000000000600082015250565b6000610d966014836108a3565b9150610da182610d60565b602082019050919050565b60006020820190508181036000830152610dc581610d89565b9050919050565b7f446f6e6174696f6e20616d6f756e74206d75737420626520677265617465722060008201527f7468616e20300000000000000000000000000000000000000000000000000000602082015250565b6000610e286026836108a3565b9150610e3382610dcc565b604082019050919050565b60006020820190508181036000830152610e5781610e1b565b9050919050565b7f4e487b7100000000000000000000000000000000000000000000000000000000600052601160045260246000fd5b6000610e98826107e5565b9150610ea3836107e5565b9250828201905080821115610ebb57610eba610e5e565b5b92915050565b60008190508160005260206000209050919050565b60006020601f8301049050919050565b600082821b905092915050565b600060088302610f237fffffffffffffffffffffffffffffffffffffffffffffffffffffffffffffffff82610ee6565b610f2d8683610ee6565b95508019841693508086168417925050509392505050565b6000819050919050565b6000610f6a610f65610f60846107e5565b610f45565b6107e5565b9050919050565b6000819050919050565b610f8483610f4f565b610f98610f9082610f71565b848454610ef3565b825550505050565b600090565b610fad610fa0565b610fb8818484610f7b565b505050565b5b81811015610fdc57610fd1600082610fa5565b600181019050610fbe565b5050565b601f82111561102157610ff281610ec1565b610ffb84610ed6565b8101602085101561100a578190505b61101e61101685610ed6565b830182610fbd565b50505b505050565b600082821c905092915050565b600061104460001984600802611026565b1980831691505092915050565b600061105d8383611033565b9150826002028217905092915050565b61107682610898565b67ffffffffffffffff81111561108f5761108e6109c7565b5b6110998254610c9d565b6110a4828285610fe0565b600060209050601f8311600181146110d757600084156110c5578287015190505b6110cf8582611051565b865550611137565b601f1984166110e586610ec1565b60005b8281101561110d578489015182556001820191506020850194506020810190506110e8565b8683101561112a5784890151611126601f891682611033565b8355505b6001600288020188555050505b505050505050565b60006040820190506111546000830185610889565b818103602083015261116681846108ef565b9050939250505056fea26469706673582212207cc8fd022e6b2b555cf1254012e9550aa79901a4eaef4a1a6c7ad3e2768d2bd564736f6c63430008180033",
  "linkReferences": {},
  "deployedLinkReferences": {}
}