{
  "_format": "hh-sol-artifact-1",
  "contractName": "ReliefFund",
  "sourceName": "contracts/ReliefFund.sol",
  "abi": [
    {
      "inputs": [],
      "stateMutability": "nonpayable",
      "type": "constructor"
    },
    {
      "anonymous": false,
      "inputs": [
        {
          "indexed": true,
          "internalType": "address",
          "name": "donor",
          "type": "address"
        },
        {
          "indexed": false,
          "internalType": "uint256",
          "name": "amount",
          "type": "uint256"
        },
        {
          "indexed": false,
          "internalType": "string",
          "name": "description",
          "type": "string"
        }
      ],
      "name": "DonationReceived",
      "type": "event"
    },
    {
      "anonymous": false,
      "inputs": [
        {
          "indexed": true,
          "internalType": "address",
          "name": "owner",
          "type": "address"
        },
        {
          "indexed": false,
          "internalType": "uint256",
          "name": "amount",
          "type": "uint256"
        }
      ],
      "name": "FundsWithdrawn",
      "type": "event"
    },
    {
      "inputs": [
        {
          "internalType": "string",
          "name": "description",
          "type": "string"
        }
      ],
      "name": "donate",
      "outputs": [],
      "stateMutability": "payable",
      "type": "function"
    },
    {
      "inputs": [
        {
          "internalType": "uint256",
          "name": "",
          "type": "uint256"
        }
      ],
      "name": "donationDetails",
      "outputs": [
        {
          "internalType": "address",
          "name": "donor",
          "type": "address"
        },
        {
          "internalType": "uint256",
          "name": "amount",
          "type": "uint256"
        },
        {
          "internalType": "string",
          "name": "description",
          "type": "string"
        }
      ],
      "stateMutability": "view",
      "type": "function"
    },
    {
      "inputs": [
        {
          "internalType": "address",
          "name": "",
          "type": "address"
        }
      ],
      "name": "donations",
      "outputs": [
        {
          "internalType": "uint256",
          "name": "",
          "type": "uint256"
        }
      ],
      "stateMutability": "view",
      "type": "function"
    },
    {
      "inputs": [
        {
          "internalType": "uint256",
          "name": "donationId",
          "type": "uint256"
        }
      ],
      "name": "getDonation",
      "outputs": [
        {
          "components": [
            {
              "internalType": "address",
              "name": "donor",
              "type": "address"
            },
            {
              "internalType": "uint256",
              "name": "amount",
              "type": "uint256"
            },
            {
              "internalType": "string",
              "name": "description",
              "type": "string"
            }
          ],
          "internalType": "struct ReliefFund.Donation",
          "name": "",
          "type": "tuple"
        }
      ],
      "stateMutability": "view",
      "type": "function"
    },
    {
      "inputs": [],
      "name": "getTotalDonations",
      "outputs": [
        {
          "internalType": "uint256",
          "name": "",
          "type": "uint256"
        }
      ],
      "stateMutability": "view",
      "type": "function"
    },
    {
      "inputs": [],
      "name": "owner",
      "outputs": [
        {
          "internalType": "address payable",
          "name": "",
          "type": "address"
        }
      ],
      "stateMutability": "view",
      "type": "function"
    },
    {
      "inputs": [],
      "name": "totalDonations",
      "outputs": [
        {
          "internalType": "uint256",
          "name": "",
          "type": "uint256"
        }
      ],
      "stateMutability": "view",
      "type": "function"
    },
    {
      "inputs": [
        {
          "internalType": "uint256",
          "name": "amount",
          "type": "uint256"
        }
      ],
      "name": "withdraw",
      "outputs": [],
      "stateMutability": "nonpayable",
      "type": "function"
    }
  ],
  "bytecode": "0x608060405234801561001057600080fd5b50336000806101000a81548173ffffffffffffffffffffffffffffffffffffffff021916908373ffffffffffffffffffffffffffffffffffffffff16021790555061121b806100606000396000f3fe60806040526004361061007b5760003560e01c8063b5aebc801161004e578063b5aebc801461013e578063cc6cb19a1461015a578063de2ed89314610197578063ef07a81f146101c25761007b565b806323780340146100805780632e1a7d4d146100bf578063777c658f146100e85780638da5cb5b14610113575b600080fd5b34801561008c57600080fd5b506100a760048036038101906100a29190610831565b6101ff565b6040516100b69392919061093e565b60405180910390f35b3480156100cb57600080fd5b506100e660048036038101906100e19190610831565b6102d1565b005b3480156100f457600080fd5b506100fd610490565b60405161010a919061097c565b60405180910390f35b34801561011f57600080fd5b5061012861049a565b60405161013591906109b8565b60405180910390f35b61015860048036038101906101539190610b08565b6104be565b005b34801561016657600080fd5b50610181600480360381019061017c9190610b7d565b610673565b60405161018e919061097c565b60405180910390f35b3480156101a357600080fd5b506101ac61068b565b6040516101b9919061097c565b60405180910390f35b3480156101ce57600080fd5b506101e960048036038101906101e49190610831565b610691565b6040516101f69190610c62565b60405180910390f35b60026020528060005260406000206000915090508060000160009054906101000a900473ffffffffffffffffffffffffffffffffffffffff169080600101549080600201805461024e90610cb3565b80601f016020809104026020016040519081016040528092919081815260200182805461027a90610cb3565b80156102c75780601f1061029c576101008083540402835291602001916102c7565b820191906000526020600020905b8154815290600101906020018083116102aa57829003601f168201915b5050505050905083565b670de0b6b3a7640000816102e59190610d42565b905060008054906101000a900473ffffffffffffffffffffffffffffffffffffffff1673ffffffffffffffffffffffffffffffffffffffff163373ffffffffffffffffffffffffffffffffffffffff1614610375576040517f08c379a000000000000000000000000000000000000000000000000000000000815260040161036c90610de5565b60405180910390fd5b804710156103b8576040517f08c379a00000000000000000000000000000000000000000000000000000000081526004016103af90610e51565b60405180910390fd5b60008054906101000a900473ffffffffffffffffffffffffffffffffffffffff1673ffffffffffffffffffffffffffffffffffffffff166108fc829081150290604051600060405180830381858888f1935050505015801561041e573d6000803e3d6000fd5b5060008054906101000a900473ffffffffffffffffffffffffffffffffffffffff1673ffffffffffffffffffffffffffffffffffffffff167feaff4b37086828766ad3268786972c0cd24259d4c87a80f9d3963a3c3d999b0d82604051610485919061097c565b60405180910390a250565b6000600354905090565b60008054906101000a900473ffffffffffffffffffffffffffffffffffffffff1681565b60003411610501576040517f08c379a00000000000000000000000000000000000000000000000000000000081526004016104f890610ee3565b60405180910390fd5b34600160003373ffffffffffffffffffffffffffffffffffffffff1673ffffffffffffffffffffffffffffffffffffffff16815260200190815260200160002060008282546105509190610f03565b9250508190555034600360008282546105699190610f03565b9250508190555060405180606001604052803373ffffffffffffffffffffffffffffffffffffffff1681526020013481526020018281525060026000600354815260200190815260200160002060008201518160000160006101000a81548173ffffffffffffffffffffffffffffffffffffffff021916908373ffffffffffffffffffffffffffffffffffffffff16021790555060208201518160010155604082015181600201908161061c91906110e3565b509050503373ffffffffffffffffffffffffffffffffffffffff167ffa5658cbb5d60363acba0d281bddcf21cc9e7ea6053267531b4cdc36d5df7a8a34836040516106689291906111b5565b60405180910390a250565b60016020528060005260406000206000915090505481565b60035481565b6106996107b0565b600260008381526020019081526020016000206040518060600160405290816000820160009054906101000a900473ffffffffffffffffffffffffffffffffffffffff1673ffffffffffffffffffffffffffffffffffffffff1673ffffffffffffffffffffffffffffffffffffffff1681526020016001820154815260200160028201805461072790610cb3565b80601f016020809104026020016040519081016040528092919081815260200182805461075390610cb3565b80156107a05780601f10610775576101008083540402835291602001916107a0565b820191906000526020600020905b81548152906001019060200180831161078357829003601f168201915b5050505050815250509050919050565b6040518060600160405280600073ffffffffffffffffffffffffffffffffffffffff16815260200160008152602001606081525090565b6000604051905090565b600080fd5b600080fd5b6000819050919050565b61080e816107fb565b811461081957600080fd5b50565b60008135905061082b81610805565b92915050565b600060208284031215610847576108466107f1565b5b60006108558482850161081c565b91505092915050565b600073ffffffffffffffffffffffffffffffffffffffff82169050919050565b60006108898261085e565b9050919050565b6108998161087e565b82525050565b6108a8816107fb565b82525050565b600081519050919050565b600082825260208201905092915050565b60005b838110156108e85780820151818401526020810190506108cd565b60008484015250505050565b6000601f19601f8301169050919050565b6000610910826108ae565b61091a81856108b9565b935061092a8185602086016108ca565b610933816108f4565b840191505092915050565b60006060820190506109536000830186610890565b610960602083018561089f565b81810360408301526109728184610905565b9050949350505050565b6000602082019050610991600083018461089f565b92915050565b60006109a28261085e565b9050919050565b6109b281610997565b82525050565b60006020820190506109cd60008301846109a9565b92915050565b600080fd5b600080fd5b7f4e487b7100000000000000000000000000000000000000000000000000000000600052604160045260246000fd5b610a15826108f4565b810181811067ffffffffffffffff82111715610a3457610a336109dd565b5b80604052505050565b6000610a476107e7565b9050610a538282610a0c565b919050565b600067ffffffffffffffff821115610a7357610a726109dd565b5b610a7c826108f4565b9050602081019050919050565b82818337600083830152505050565b6000610aab610aa684610a58565b610a3d565b905082815260208101848484011115610ac757610ac66109d8565b5b610ad2848285610a89565b509392505050565b600082601f830112610aef57610aee6109d3565b5b8135610aff848260208601610a98565b91505092915050565b600060208284031215610b1e57610b1d6107f1565b5b600082013567ffffffffffffffff811115610b3c57610b3b6107f6565b5b610b4884828501610ada565b91505092915050565b610b5a8161087e565b8114610b6557600080fd5b50565b600081359050610b7781610b51565b92915050565b600060208284031215610b9357610b926107f1565b5b6000610ba184828501610b68565b91505092915050565b610bb38161087e565b82525050565b610bc2816107fb565b82525050565b600082825260208201905092915050565b6000610be4826108ae565b610bee8185610bc8565b9350610bfe8185602086016108ca565b610c07816108f4565b840191505092915050565b6000606083016000830151610c2a6000860182610baa565b506020830151610c3d6020860182610bb9565b5060408301518482036040860152610c558282610bd9565b9150508091505092915050565b60006020820190508181036000830152610c7c8184610c12565b905092915050565b7f4e487b7100000000000000000000000000000000000000000000000000000000600052602260045260246000fd5b60006002820490506001821680610ccb57607f821691505b602082108103610cde57610cdd610c84565b5b50919050565b7f4e487b7100000000000000000000000000000000000000000000000000000000600052601260045260246000fd5b7f4e487b7100000000000000000000000000000000000000000000000000000000600052601160045260246000fd5b6000610d4d826107fb565b9150610d58836107fb565b925082610d6857610d67610ce4565b5b828204905092915050565b7f4f6e6c7920746865206f776e65722063616e2077697468647261772066756e6460008201527f7300000000000000000000000000000000000000000000000000000000000000602082015250565b6000610dcf6021836108b9565b9150610dda82610d73565b604082019050919050565b60006020820190508181036000830152610dfe81610dc2565b9050919050565b7f496e73756666696369656e742062616c616e6365000000000000000000000000600082015250565b6000610e3b6014836108b9565b9150610e4682610e05565b602082019050919050565b60006020820190508181036000830152610e6a81610e2e565b9050919050565b7f446f6e6174696f6e20616d6f756e74206d75737420626520677265617465722060008201527f7468616e20300000000000000000000000000000000000000000000000000000602082015250565b6000610ecd6026836108b9565b9150610ed882610e71565b604082019050919050565b60006020820190508181036000830152610efc81610ec0565b9050919050565b6000610f0e826107fb565b9150610f19836107fb565b9250828201905080821115610f3157610f30610d13565b5b92915050565b60008190508160005260206000209050919050565b60006020601f8301049050919050565b600082821b905092915050565b600060088302610f997fffffffffffffffffffffffffffffffffffffffffffffffffffffffffffffffff82610f5c565b610fa38683610f5c565b95508019841693508086168417925050509392505050565b6000819050919050565b6000610fe0610fdb610fd6846107fb565b610fbb565b6107fb565b9050919050565b6000819050919050565b610ffa83610fc5565b61100e61100682610fe7565b848454610f69565b825550505050565b600090565b611023611016565b61102e818484610ff1565b505050565b5b818110156110525761104760008261101b565b600181019050611034565b5050565b601f8211156110975761106881610f37565b61107184610f4c565b81016020851015611080578190505b61109461108c85610f4c565b830182611033565b50505b505050565b600082821c905092915050565b60006110ba6000198460080261109c565b1980831691505092915050565b60006110d383836110a9565b9150826002028217905092915050565b6110ec826108ae565b67ffffffffffffffff811115611105576111046109dd565b5b61110f8254610cb3565b61111a828285611056565b600060209050601f83116001811461114d576000841561113b578287015190505b61114585826110c7565b8655506111ad565b601f19841661115b86610f37565b60005b828110156111835784890151825560018201915060208501945060208101905061115e565b868310156111a0578489015161119c601f8916826110a9565b8355505b6001600288020188555050505b505050505050565b60006040820190506111ca600083018561089f565b81810360208301526111dc8184610905565b9050939250505056fea26469706673582212205a26798625cdd3b49a7c2c61a6605eeeb08b3714fa40de1e1a4a7234c117be3764736f6c63430008180033",
  "linkReferences": {},
  "deployedLinkReferences": {}
}