{
  "_format": "hh-sol-artifact-1",
  "contractName": "ReliefFund",
  "sourceName": "contracts/ReliefFund.sol",
  "abi": [
    {
      "inputs": [],
      "stateMutability": "nonpayable",
      "type": "constructor"
    },
    {
      "inputs": [
        {
          "internalType": "string",
          "name": "_description",
          "type": "string"
        }
      ],
      "name": "donate",
      "outputs": [],
      "stateMutability": "payable",
      "type": "function"
    },
    {
      "inputs": [
        {
          "internalType": "uint256",
          "name": "",
          "type": "uint256"
        }
      ],
      "name": "donations",
      "outputs": [
        {
          "internalType": "address",
          "name": "donor",
          "type": "address"
        },
        {
          "internalType": "uint256",
          "name": "amount",
          "type": "uint256"
        },
        {
          "internalType": "string",
          "name": "description",
          "type": "string"
        }
      ],
      "stateMutability": "view",
      "type": "function"
    },
    {
      "inputs": [
        {
          "internalType": "uint256",
          "name": "index",
          "type": "uint256"
        }
      ],
      "name": "getDonation",
      "outputs": [
        {
          "internalType": "address",
          "name": "",
          "type": "address"
        },
        {
          "internalType": "uint256",
          "name": "",
          "type": "uint256"
        },
        {
          "internalType": "string",
          "name": "",
          "type": "string"
        }
      ],
      "stateMutability": "view",
      "type": "function"
    },
    {
      "inputs": [],
      "name": "getDonationsCount",
      "outputs": [
        {
          "internalType": "uint256",
          "name": "",
          "type": "uint256"
        }
      ],
      "stateMutability": "view",
      "type": "function"
    },
    {
      "inputs": [],
      "name": "organizer",
      "outputs": [
        {
          "internalType": "address",
          "name": "",
          "type": "address"
        }
      ],
      "stateMutability": "view",
      "type": "function"
    },
    {
      "inputs": [],
      "name": "totalDonations",
      "outputs": [
        {
          "internalType": "uint256",
          "name": "",
          "type": "uint256"
        }
      ],
      "stateMutability": "view",
      "type": "function"
    },
    {
      "inputs": [],
      "name": "withdraw",
      "outputs": [],
      "stateMutability": "nonpayable",
      "type": "function"
    }
  ],
  "bytecode": "0x608060405234801561001057600080fd5b50336000806101000a81548173ffffffffffffffffffffffffffffffffffffffff021916908373ffffffffffffffffffffffffffffffffffffffff160217905550610cc9806100606000396000f3fe6080604052600436106100705760003560e01c8063c93527d81161004e578063c93527d8146100d3578063de2ed893146100fe578063ef07a81f14610129578063f8626af81461016857610070565b80633ccfd60b14610075578063612032651461008c578063b5aebc80146100b7575b600080fd5b34801561008157600080fd5b5061008a6101a7565b005b34801561009857600080fd5b506100a161029e565b6040516100ae9190610987565b60405180910390f35b6100d160048036038101906100cc91906107ba565b6102c2565b005b3480156100df57600080fd5b506100e86103f3565b6040516100f59190610a40565b60405180910390f35b34801561010a57600080fd5b50610113610400565b6040516101209190610a40565b60405180910390f35b34801561013557600080fd5b50610150600480360381019061014b91906107fb565b610406565b60405161015f939291906109a2565b60405180910390f35b34801561017457600080fd5b5061018f600480360381019061018a91906107fb565b6105b8565b60405161019e939291906109a2565b60405180910390f35b60008054906101000a900473ffffffffffffffffffffffffffffffffffffffff1673ffffffffffffffffffffffffffffffffffffffff163373ffffffffffffffffffffffffffffffffffffffff1614610235576040517f08c379a000000000000000000000000000000000000000000000000000000000815260040161022c90610a00565b60405180910390fd5b60008054906101000a900473ffffffffffffffffffffffffffffffffffffffff1673ffffffffffffffffffffffffffffffffffffffff166108fc479081150290604051600060405180830381858888f1935050505015801561029b573d6000803e3d6000fd5b50565b60008054906101000a900473ffffffffffffffffffffffffffffffffffffffff1681565b60003411610305576040517f08c379a00000000000000000000000000000000000000000000000000000000081526004016102fc906109e0565b60405180910390fd5b600060405180606001604052803373ffffffffffffffffffffffffffffffffffffffff168152602001348152602001838152509050600281908060018154018082558091505060019003906000526020600020906003020160009091909190915060008201518160000160006101000a81548173ffffffffffffffffffffffffffffffffffffffff021916908373ffffffffffffffffffffffffffffffffffffffff1602179055506020820151816001015560408201518160020190805190602001906103d392919061069a565b50505034600160008282546103e89190610ad8565b925050819055505050565b6000600280549050905090565b60015481565b60008060606002805490508410610452576040517f08c379a000000000000000000000000000000000000000000000000000000000815260040161044990610a20565b60405180910390fd5b60006002858154811061048e577f4e487b7100000000000000000000000000000000000000000000000000000000600052603260045260246000fd5b90600052602060002090600302016040518060600160405290816000820160009054906101000a900473ffffffffffffffffffffffffffffffffffffffff1673ffffffffffffffffffffffffffffffffffffffff1673ffffffffffffffffffffffffffffffffffffffff1681526020016001820154815260200160028201805461051790610bac565b80601f016020809104026020016040519081016040528092919081815260200182805461054390610bac565b80156105905780601f1061056557610100808354040283529160200191610590565b820191906000526020600020905b81548152906001019060200180831161057357829003601f168201915b5050505050815250509050806000015181602001518260400151935093509350509193909250565b600281815481106105c857600080fd5b90600052602060002090600302016000915090508060000160009054906101000a900473ffffffffffffffffffffffffffffffffffffffff169080600101549080600201805461061790610bac565b80601f016020809104026020016040519081016040528092919081815260200182805461064390610bac565b80156106905780601f1061066557610100808354040283529160200191610690565b820191906000526020600020905b81548152906001019060200180831161067357829003601f168201915b5050505050905083565b8280546106a690610bac565b90600052602060002090601f0160209004810192826106c8576000855561070f565b82601f106106e157805160ff191683800117855561070f565b8280016001018555821561070f579182015b8281111561070e5782518255916020019190600101906106f3565b5b50905061071c9190610720565b5090565b5b80821115610739576000816000905550600101610721565b5090565b600061075061074b84610a8c565b610a5b565b90508281526020810184848401111561076857600080fd5b610773848285610b6a565b509392505050565b600082601f83011261078c57600080fd5b813561079c84826020860161073d565b91505092915050565b6000813590506107b481610c7c565b92915050565b6000602082840312156107cc57600080fd5b600082013567ffffffffffffffff8111156107e657600080fd5b6107f28482850161077b565b91505092915050565b60006020828403121561080d57600080fd5b600061081b848285016107a5565b91505092915050565b61082d81610b2e565b82525050565b600061083e82610abc565b6108488185610ac7565b9350610858818560208601610b79565b61086181610c6b565b840191505092915050565b6000610879602883610ac7565b91507f446f6e6174696f6e20616d6f756e742073686f756c642062652067726561746560008301527f72207468616e20300000000000000000000000000000000000000000000000006020830152604082019050919050565b60006108df602583610ac7565b91507f4f6e6c79206f7267616e697a65722063616e2063616c6c20746869732066756e60008301527f6374696f6e0000000000000000000000000000000000000000000000000000006020830152604082019050919050565b6000610945600d83610ac7565b91507f496e76616c696420696e646578000000000000000000000000000000000000006000830152602082019050919050565b61098181610b60565b82525050565b600060208201905061099c6000830184610824565b92915050565b60006060820190506109b76000830186610824565b6109c46020830185610978565b81810360408301526109d68184610833565b9050949350505050565b600060208201905081810360008301526109f98161086c565b9050919050565b60006020820190508181036000830152610a19816108d2565b9050919050565b60006020820190508181036000830152610a3981610938565b9050919050565b6000602082019050610a556000830184610978565b92915050565b6000604051905081810181811067ffffffffffffffff82111715610a8257610a81610c3c565b5b8060405250919050565b600067ffffffffffffffff821115610aa757610aa6610c3c565b5b601f19601f8301169050602081019050919050565b600081519050919050565b600082825260208201905092915050565b6000610ae382610b60565b9150610aee83610b60565b9250827fffffffffffffffffffffffffffffffffffffffffffffffffffffffffffffffff03821115610b2357610b22610bde565b5b828201905092915050565b6000610b3982610b40565b9050919050565b600073ffffffffffffffffffffffffffffffffffffffff82169050919050565b6000819050919050565b82818337600083830152505050565b60005b83811015610b97578082015181840152602081019050610b7c565b83811115610ba6576000848401525b50505050565b60006002820490506001821680610bc457607f821691505b60208210811415610bd857610bd7610c0d565b5b50919050565b7f4e487b7100000000000000000000000000000000000000000000000000000000600052601160045260246000fd5b7f4e487b7100000000000000000000000000000000000000000000000000000000600052602260045260246000fd5b7f4e487b7100000000000000000000000000000000000000000000000000000000600052604160045260246000fd5b6000601f19601f8301169050919050565b610c8581610b60565b8114610c9057600080fd5b5056fea264697066735822122042be0a28c5d29090b7ead3a33cbea83b2efa5130af7d131c570edc1a116e028664736f6c63430008000033",
  "linkReferences": {},
  "deployedLinkReferences": {}
}